S00F00006D6F785F76312E302E7333372D
S11300000010002089300000AD300000AD30000049
S1130010AD300000AD300000AD300000AD30000068
S1130020AD300000AD300000AD300000AD30000058
S1130030AD300000AD300000AD300000AD30000048
S1130040AD300000AD300000AD300000AD30000038
S1130050AD300000AD300000AD300000AD30000028
S1130060AD300000AD300000AD300000AD30000018
S1130070F30C0000AD300000AD300000AD300000E6
S1130080AD300000AD300000AD300000AD300000F8
S1130090AD300000DB2F0000AD300000AD300000BB
S11300A0AD3000005128000043280000AD300000AE
S11300B0AD300000AD300000AD300000AD300000C8
S11300C0AD300000AD300000AD300000AD300000B8
S11300D0AD300000AD300000AD300000AD300000A8
S11300E0AD300000AD300000AD300000AD30000098
S11300F0AD300000AD300000AD300000AD30000088
S1130100AD300000AD300000AD300000AD30000077
S1130110AD300000AD300000AD300000AD30000067
S1130120AD300000AD300000AD300000AD30000057
S1130130AD300000AD300000AD300000AD30000047
S1130140000000000000F0BF00000000000000807C
S1130150000000000000008000000000000000001B
S1130160000000C05294EEBF00000048204E51BE73
S1130170000000F86467BCBC000000000000000040
S1130180000000208133EDBF00000080B3DB14BE0B
S1130190000000506706A3BC00000000000000003F
S11301A0000000D0E9DCEBBF00000008C39259BE98
S11301B000000080B0D3B8BC0000000000000000C4
S11301C000000070F98FEABF000000C0A51028BE2F
S11301D0000000E8BFC0B0BC000000000000000048
S11301E000000070284CE9BF00000060134B42BEC1
S11301F0000000C03D20B8BC00000000000000006A
S113020000000050FA10E8BF000000C05FF62BBEEB
S1130210000000905C71A7BC00000000000000001A
S113022000000020FCDDE6BF000000C0F8F154BE71
S113023000000018E9F6B9BC00000000000000004E
S1130240000000D0C3B2E5BF00000070E43254BE29
S113025000000050DB06B4BC0000000000000000F9
S113026000000010EF8EE4BF00000020F36252BED5
S1130270000000C02A879ABC0000000000000000B3
S1130280000000B02272E3BF000000F0E8E056BEB8
S113029000000028352DBDBC000000000000000057
S11302A0000000000A5CE2BF000000B0FA8E41BE0C
S11302B000000040AE6FBDBC000000000000000064
S11302C000000000564CE1BF000000F015CD5FBEF9
S11302D000000000141C90BC00000000000000009E
S11302E000000040BD42E0BF00000030F93457BEBA
S11302F0000000E06C1E93BC000000000000000041
S1130300000000E0F57DDEBF000000B08A535EBE51
S113031000000080DA77AABC0000000000000000A2
S1130320000000C09D81DCBF00000000FFA226BECB
S11303300000006057E2B0BC0000000000000000B4
S113034000000060F98FDABF000000580A8151BE36
S1130350000000F05F60B8BC000000000000000076
S11303600000000098A8D8BF000000607A7F45BE56
S1130370000000D05433A3BC0000000000000000C3
S1130380000000600FCBD6BF000000D091CB40BE70
S1130390000000406D1BA0BC000000000000000035
S11303A0000000A0FBF6D4BF00000098C5CE52BEEA
S11303B0000000003A397EBC00000000000000008C
S11303C0000000E0FE2BD3BF0000004073872BBE6B
S11303D000000000926879BC0000000000000000EA
S11303E000000040C069D1BF00000058F16353BE53
S11303F000000080438D7CBC000000000000000071
S113040000000080D85FCFBF000000181F8354BED7
S1130410000000B03F42A2BC000000000000000049
S11304200000008067FCCBBF00000060FAFF53BEF1
S113043000000050E00DB8BC000000000000000007
S11304400000000098A8C8BF000000607A7F35BE95
S1130450000000C0543393BC000000000000000002
S113046000000000DC63C5BF00000058D6FF54BE86
S113047000000000396490BC00000000000000008F
S1130480000000C0AD2DC2BF00000080A45915BEFD
S1130490000000E0484BABBC00000000000000007E
S11304A0000000801A0BBEBF00000050BF3C5ABEC3
S11304B0000000A0B364B6BC00000000000000000F
S11304C00000008004D6B7BF00000040BBCF36BE9A
S11304D00000008076CEA8BC0000000000000000F0
S11304E00000008032BBB1BF000000402A0043BEC0
S11304F000000028C60CBDBC000000000000000085
S1130500000000009473A7BF000000182B3B59BEE5
S1130510000000C0E55DA5BC000000000000000074
S113052000000000EE4397BF000000A0E6C340BEF9
S113053000000020958DB5BC000000000000000004
S113054000000000000000800000000000000080A7
S11305500000000000000080000000000000000017
S113056000800950090000008005000000000058C8
S113057012000000840500001A00000015000000AD
S1130580190000001E0000000B0000000B0000001A
S11305900200000000002020000000000300000012
S11305A08C8C3C00000000000000000000000000F3
S11305B0F304353F0000803F000000400000004B82
S11305C01502993E11AECC3EC0AA2A3F1672313FA5
S11305D0E8E8FB331872313FD85BDE3E2837A93296
S11305E0F43EA133D95BDE3E98209A3E3BAAB83F45
S11305F06070A53210B5DFF89C414FF4E4712046D9
S113060000F0DAF80922226162610FF28C10A06115
S113061004F5E471E1614FF4806121620022A26279
S113062000236362E26204F1F002106004F5B96031
S11306305060916013610020D06053610FF2641127
S113064042420A44D27B2254401C1028F8D310BDE5
S11306502DE9F8430546884614464FF00009EE6834
S11306602F69A8684146801BBE4234BFBF1B3F1898
S11306707F1E874228BF0746A742686888BF27466F
S11306803A46801900F0B8F8A968E41BBE198E42F6
S1130690B944B84408BF0026EE60002CE0D14846B7
S11306A0BDE8F2832DE9F0410446E768A568606877
S11306B01646ED1B88463844AE4203D200F09CF83F
S11306C0F61909E02A4600F097F86068761B32466E
S11306D008EB050100F090F8E660BDE8F081014602
S11306E00869CA68824202D38968491E4EE0801AAA
S11306F0401E704770B500F01EF800F118067269CC
S11307001AB1022A0ED005D310E000F012F8A84264
S113071005D20BE000F00DF8A84298BF054600F0A2
S113072016F804E000F00FF8054600E0002528461E
S113073070BD3046D3E70C46182148431546DFF810
S11307405420104470472A462146304680E72A4602
S113075021463046A6E7F8B504460D46DFF83400D6
S113076001781646532918BFFFF744FF00F005F837
S1130770FFF7C0FF87F31188F2BDEFF31187202044
S113078080F3118832462946204670478A1A801819
S1130790704700009C1000205465726D696E616C96
S11307A00000000000000000000054545220524594
S11307B04747455300000000002200F02DB830B434
S11307C0002513E050F8042BD30744BFA9F101031B
S11307D09A18091F042942F8045BFAD213468C07BD
S11307E044BF15809B1CC90748BF1D7050F8041BEB
S11307F00029E7D130BC70474AB1000011F8013B31
S1130800521E00F8013B1CBF11F8013BF8E770478A
S113081062F30F2262F31F42401810F0030308D062
S1130820C91A1FD3DB0748BF00F8012D28BF20F8E1
S1130830022D130030B414461546103928BF20E9A0
S11308403C00FAD8490728BF20E90C0048BF40F80B
S1130850042D890028BF20F8022D48BF00F8012D7F
S113086030BC7047C91818BF00F8012DCB0728BF4A
S113087000F8012D7047000038B50446A06863688D
S1130880421C934205D325682954E068A260401CA9
S1130890E060A268606882420CD121682069FFF799
S11308A05AFFA168884203D04FF0FF30E06031BDA9
S11308B00021A16031BD00002DE9F84F07468946AB
S11308C09246984648460125012102E0B0FBFAF021
S11308D0491C5045FAD2404688450B9E0A9C38BFB5
S11308E008460090F00718D4BCB1B0070FD44FF0FD
S11308F0200B009AA24210D259463846FFF7BCFF9B
S1130900F868641E002808D4002CF2D10DE0B8F178
S1130910000FECD14FF0300BEBE7F86800282FD430
S113092003E0A8F101080AFB05F5B8F1010FF8D8B6
S1130930B9FBF5F0504528BF0AFB05F5F8D2B9FB21
S1130940F5F000BFA1A105FB1099095C3846FFF73B
S113095093FFF868002803D4B5FBFAF5002DEED117
S1130960F0070DD564B1009DA54209D22021384677
S1130970FFF782FFF868641E002801D4002CF3D12D
S1130980BDE8F18F2DE9F14F0D46402198B0039158
S11309901899164607A8002202900492069105921F
S11309A015F8010B002800F0ED80252840F0E480C4
S11309B0002702E047F001076D1C287823280CD09B
S11309C02B2807D02D28F5D0302808BF47F0020780
S11309D0F2D005E047F00407EEE747F00807EBE73D
S11309E000240A2104E001FB04006D1CA0F1300482
S11309F02A781046A0F130030A2BF4D34FF00008F4
S1130A002E2A0BD16D1C04E001FB08006D1CA0F123
S1130A1030082878A0F130020A2AF5D3287801E0BA
S1130A2015F8010F6C2818BF6828F9D0252800F0A4
S1130A309F8058287BD063280BD064280FD070285F
S1130A4000F08C8073287BD075286AD078286ED00B
S1130A5082E0306850F8041B3060C9B289E0306825
S1130A6050F8049B30605FEA090048BF404201210E
S1130A700A2202E090FBF2F0491C0A28FADAC24684
S1130A80884507F0040B38BF8A4634B1B9F1000F2A
S1130A9002D4BBF1000F00D0641EB80702D5B8F130
S1130AA0000F0ED0F8070CD45CB1A24509D2202166
S1130AB000F080F80598641E002802D4002CF4D1BC
S1130AC002E00598002847D4B9F1000F03D5C9F115
S1130AD000092D2103E0BBF1000F05D02B2100F00C
S1130AE069F80598002837D407F00301022908BFE4
S1130AF0B8F1000F0FD174B1A24509D2302100F032
S1130B0059F80598641E002802D4002CF4D102E0A0
S1130B100598002820D40197009443460A224946A8
S1130B200AE0306843460A2200F03DF804E03068E9
S1130B30434600F038F8102202A8FFF7BDFE0BE090
S1130B40306850F8044B306014F8010B20B100F009
S1130B5030F805980028F7D56D1C0FE0306808229E
S1130B60082350F8041B3060002001900092E2E753
S1130B70252100F01FF8EFE700F01BF80598002886
S1130B807FF50EAF0598002809DD049A1AB118986C
S1130B9007A9FFF7E0FD0599049841180591059808
S1130BA019B0BDE8F08F50F8041B30600197009431
S1130BB07047014602A85FE60CB480B502AA009211
S1130BC06A46FFF7DFFE02BC5DF80CFB30313233BE
S1130BD034353637383941424344454670B500F020
S1130BE029F80446114D2878D8B90021E960286114
S1130BF0696000F047F8012000F0B8F800F0C4F88C
S1130C000200AA6004D1204600F0CEF8232070BD73
S1130C10074840F2E731002300F0CCF80126686170
S1130C202E70204600F0C0F8002070BD641A002029
S1130C3018FCFFFFEFF31180302181F31188704716
S1130C4070B504463FA5B4F5004F03D3AD21284643
S1130C5000F033F9601CB0FA80F6C6F11F06202EAE
S1130C60C0F005804FF4CC7133A000F026F90120C8
S1130C70B040401E844203D0B421284600F01DF940
S1130C80304670BDDFB500BF34A100BF35A4D1E943
S1130C900023D4E900672448CDE90023CDE90267A5
S1130CA000F00CF900218DF800100020FFF7C8FFB8
S1130CB08DF80400684600F05BF900208DF8080008
S1130CC002A9012000F00EF9184840F2FF314160FA
S1130CD00160174881680A07FCD4002101600120E3
S1130CE000F01FF90C2000F0C4F90C2000F096F974
S1130CF0DFBD38B5FFF79EFF05460E4800680024A7
S1130D00C10748BF0124410600F05100074948BF0C
S1130D1044F002040860204600F0F4F92846BDE8D7
S1130D20324000F041B8000084050000142000584F
S1130D302000005814000058736C5F636F6D6D6F72
S1130D406E2E6800736C695F736C65657074696D91
S1130D5065725F68616C2E6800000000010000008D
S1130D600500000002000003000000000021C2078B
S1130D7048BF01218007034848BF41F0400101609A
S1130D80704700BF1810005880B5064800F000FAFC
S1130D90694600F0FFF90020FFF752FF0146009872
S1130DA0C84002BD6C05000080F31188BFF36F8F4B
S1130DB070470000D3BBD9B1B2F5803F5BD2022AA1
S1130DC01ED98C46B1FBF2F102FB11C31B0443EAAA
S1130DD01043B3FBF2FC02FB1C3380B240EA034332
S1130DE0B3FBF2F002FB103240EA0C4000237047E0
S1130DF0022A05D98446B0FBF2F002FB10C2704708
S1130E004AB105D100F0010249085FEA3000704799
S1130E1000220023704700F0C3B90B000200002138
S1130E2000207047F7D3002200237047904271EBF3
S1130E30030CF2D370B5B1FA81F4B3FA83F52C1B29
S1130E40A340C4F1200532FA05F63343A2405FF013
S1130E500046E64002E05B085FEA3202841A71EB66
S1130E60030524BF204629467641F4D302000B0033
S1130E703000002170BD70B5B1FA81F4B2FA82F588
S1130E80C4F120046419B4F12006DAD3B2405FF04F
S1130E900044F440002502E052085FEA3303C61A16
S1130EA071EB020E24BF3046714664416D41F3D3A9
S1130EB002000B002000290070BDFEE7012100F0B4
S1130EC071B900003F49086800281CBF486A00281F
S1130ED0F9D1704780B5FFF7F5FF02203A49086061
S1130EE001BD000038B504460D46032C03D34C2144
S1130EF03AA0FFF7E2FF29786878EA780C2341EA00
S1130F00800141EA421128796343304A41EA0011E1
S1130F10D1502878012803D1A8782D4941F824001C
S1130F2031BD10B50146274C206808B908001ED011
S1130F3022682AB1206800281CBF606A0028F9D101
S1130F4051B10121234A1160206800281CBF606A46
S1130F500028F9D1A16010BDFFF7BCFF206800286C
S1130F601CBF606A0028F9D101211B48016010BD33
S1130F7010B5144B1A6801462AB1186800281CBF22
S1130F80586A0028F9D10122134802604A7802B154
S1130F900122887808B142F00202C87808B142F010
S1130FA0040208794C7942EA001242EAC4025A6007
S1130FB00122084C22600878002814BF0120022076
S1130FC0986010BD040000580C0000583000005810
S1130FD0E88003500410005804200058656D5F72C7
S1130FE07463632E6300000010B5FFF723FE384AD4
S1130FF0117871B901231370FFF7D6FE6FF0040462
S1131000052160B200F040F8641C60B24028F7DBB0
S113101010BDBDE81040FFF7C7BE000010B5044680
S1131020412C03D34FF4987100F020F8002C07D41E
S1131030012104F01F008140264A640942F824106B
S113104010BD10B50446402C03D340F23B1100F010
S11310500DF82049601151F8200004F01F04E0400D
S113106000F0010080F0010010BD00001DA0FFF79A
S113107024BF002807D4012200F01F018A40164B28
S1131080400943F82020704770B5044604F110026B
S11310904FEA010513A6512A04D34FF4EF713046E9
S11310A0FFF70BFF102D04D340F2DF113046FFF79A
S11310B004FF60B2290164B2002C02D4074A11541F
S11310C070BD074B00F00F00184400F8041C70BDFD
S11310D0042D002000E100E080E200E000E400E0F4
S11310E018ED00E0736C5F696E74657272757074EC
S11310F05F6D616E616765725F636F727465786D51
S11311002E630000F8B50546204CE80706D5616853
S1131110491C616000F05CF800F074F8A80733D54E
S11311200025002714E04869D0B90F46486938B94A
S113113008793A79904238BF0F4689680029F5D179
S11311403046FFF731FE384600F07AF8FF886D1C10
S1131150FFF770FD064600F03BF8E1680029E2D194
S11311600020A070012D03D1B80744BF0121A17054
S113117000F048F8222804BF022000F0C1F83046ED
S1131180BDE8F240FFF710BEF1BD00BF641A0020B5
S113119000797047002918BF00F0CCB822207047AE
S11311A07047000080B50A4670B1006800F03F0146
S11311B0C0F3821305481BB900F01EF9002002BDDC
S11311C0012B08BF001DF7D00E2002BD6480005023
S11311D010B500F02FF90A4BDA681969411A08E0D2
S11311E054698C4239BF091B0024641A00215461DC
S11311F09268002A18BF0029F2D1186110BD00BFFF
S1131200641A002010B50D49C868A0B1446944B1FE
S1131210096902206418FFF7A9FD204600F012F9BD
S113122005E00220FFF7A2FD022000F03DF900F0E6
S113123043F9002010BD222010BD00BF641A002015
S11312402DE9F0410646306900240025A04670B11E
S1131250044600F0EFF8B169451AEF17474506DB7D
S113126001DCA54203D330694118B16137E0FFF7CF
S1131270E1FC0746304600F037F93846FFF794FDA5
S1131280306960B3641B68EBE5780122002398455C
S113129007DC01DB944204D240F2476114A0FFF75B
S11312A00CFEB08B68B1F18B401882B2F083B2F5BA
S11312B07A7F06DBA0F57A70F083B069641E401E65
S11312C0B061FFF7B7FC05462146304600F02AF925
S11312D0B16930694118B1612846FFF765FDF268CC
S11312E022B131683046BDE8F0411047BDE8F081D5
S11312F0736C5F736C65657074696D65722E6300E1
S11313000021C20748BF0121800709D501220648F0
S113131002700648036841F040019B089B0003608B
S113132003480160704700BF9A1000203C00005839
S113133018200058F8B504460D46FFF77BFC00263C
S11313400746F4B1012C1FD0032C20D0042C21D04B
S1131350052C22D0072C23D0082C24D0092C25D0EE
S11313600C2C26D00D2C27D00F2C28D0102C29D0B3
S1131370122C2AD0142C2BD0172C2FD01D2C2AD071
S113138032E000F0F5F82DE04FF4C07028E04FF49F
S1131390207025E04FF4407022E04FF460701FE0AD
S11313A04FF400701CE04FF4806019E04FF490603B
S11313B016E04FF4C06013E04FF4F06010E04FF417
S11313C0B0600DE04FF4D0600AE04FF4E06007E055
S11313D04FF4A06004E04FF4807001E04FF4086023
S11313E000F09DF9286001E02E6021263846FFF7C1
S11313F0DBFC3046F2BD000070B50E4605461446CF
S1131400202E04D391210FF22000FFF756FD002C6B
S113141014BF05F5805505F50055012000FA06F6C0
S11314202E6070BD00207047656D5F6275732E6815
S113143000000000024881680A07FCD40068704775
S113144020000058F8B5064600F058FF0546FFF79F
S1131450F1FF074600F056FF114C2168490604D4F9
S1131460C11B032901D8B8420DD1F01B03284FF04A
S1131470FF3038BFFE1CB6FBF0F08619761EE6621C
S11314800220FFF773FC284600F042FF0549087864
S113149028B1A06A002240F00200A0620A70F1BDE7
S11314A0140000589A100020800702D54021014AF8
S11314B011607047141000580A49C86800224A7025
S11314C0002800D1704710B583799C0706D4806842
S11314D030B143699A18022AF6D310BD012048702E
S11314E010BD00BF641A00200D4B0022D96818B942
S11314F0222070470A46896839B18142FAD181684D
S1131500002A14BF9160D96001E00220704781680D
S113151019B14A69406982184A610020704700BFC6
S1131520641A0020F0B54161104EF468D4B100256E
S11315306369994206D22BB1CA1A09D12279077973
S1131540BA4205D2C91A41612546A468002CEFD1DC
S1131550002D14BFA860F060220005D06369591AF9
S1131560616101E0F06000228260F0BD641A002035
S11315700A48016801F00701491E03290CD8DFE875
S113158001F00902040700F0C9BE0548006870476D
S11315900448704704487047FEE700BF708000505D
S11315A00010002080D54302002D3101656D5F627B
S11315B075732E6800000000DFF860140868C0F33B
S11315C000100028FAD10868C0F38110704710B5E4
S11315D000240028DFF84824DFF84C1518BFB0F5C4
S11315E0C07F09D0B0F5007F23D0B0F5207F24D090
S11315F0B0F5607F0FD023E00868C0F30334002CFB
S113160018BF012C1CD0032C1CBF072C0F2C17D087
S11316104FF4227109E00869C0F30114002C1CBFC7
S1131620012C032C0CD04FF426711046FFF745FC17
S113163006E0086AC0F3046402E00868C0F380248A
S1131640601C10BD38B54C1E0246002ADFF8D85481
S1131650DFF8D80418BFB2F5C07F09D0B2F5007F17
S11316603BD0B2F5207F46D0B2F5607F24D050E065
S1131670012918BF022909D0042918BF082905D057
S113168010291CBF4FF43371FFF717FC00F05EFD07
S113169000F01AFD00F089F92A6822F4704242EA47
S11316A004322A60FFF788FF044600F03DFE00F094
S11316B045FA00F00FFD99E1012918BF022905D070
S11316C004291CBF40F2F921FFF7F7FB286920F039
S11316D0300040EA0410286131BD09B1212903D347
S11316E04FF44371FFF7E9FB286A20F0F85040EA11
S11316F00460286231BD01291EBF022940F2123163
S1131700FFF7DBFB286820F4806040EA842028602F
S113171031BD4FF44671BDE83440FFF7CEBB1CB574
S113172000210091002857D0203855D0401E5CD0AD
S1131730401E51D0401E58D0401E032871D9001FAE
S1131740012852D9801E78D0401E54D0401E7CD02F
S1131750401E34D0401E4ED0401E022845D90938C0
S113176067D0401E61D0401E02283ED9C01E78D0EA
S1131770401E72D0401E38D00E382DD0801E022854
S11317802AD9C01E4DD00E38012825D9203820D0A2
S1131790803856D080381FD0803820D0803824D06C
S11317A0803828D0803831D080383AD080383CD046
S11317B080383ED0803840D0803846D0803848D0F9
S11317C080384AD080384CD04FF48072801A4CD084
S11317D04FE0FFF7CDFE22E000F0A8FD1FE0FFF789
S11317E0C7FE04464FF4007015E000F09FFD044668
S11317F04FF420700FE000F099FD04464FF4207080
S1131800FFF7E5FEB4FBF0F0400808E0FFF7B0FE98
S113181004464FF46070FFF7DAFEB4FBF0F000907A
S11318202BE0684600F03CFB27E0684600F0B6FA7F
S113183023E0684600F0E8FA1FE0684600F01EFC6A
S11318401BE0684600F0B4FC17E0684600F04AFB71
S113185013E0684600F082FC0FE0684600F050FC9C
S11318600BE0684600F06CFB07E0684600F0F2FA13
S113187003E040F2A44100F085FA009816BD000090
S113188080B5002124380091DFF89421032847D93A
S1131890801F40D0801E4CD0401E59D00B3860D0E1
S11318A0401F4BD0401E61D0143839D02E3818D088
S11318B080383AD04FF44073C01A31D0803842D0C7
S11318C080384ED0803826D0803832D080383FD00F
S11318D080384BD0803831D0803834D080383CD0F8
S11318E049E0DFF84402016801F00701491E0329B9
S11318F00ED8DFE801F00A020407052203E0032101
S113190000913DE0072200923AE00223009337E081
S113191040F2D64131E06946002000F0AFFB2FE0F1
S11319206946002000F0BCFA2AE0694600F040FC59
S113193026E06946002000F0D5FA21E0694600203F
S113194000F0FEFA1CE06946002000F027FA17E0D8
S11319506946002000F002FC12E0694600F07AFAC1
S11319600EE06946002000F04FFA09E069460020C5
S113197000F0C6FB04E040F289511046FFF79DFADF
S1131980009802BD80B50121022000F0FDFC4FF457
S11319902070FFF71CFEDFF86813087000F0D6FB18
S11319A000F092FB00F001F801BD4FF48030DFF845
S11319B0CC130860704738B50446FFF7FDFD0546B3
S11319C000F0B2FCC5F10205294600F0E1F901215D
S11319D0002000F0C7FC14B100F07CFB06E0DFF847
S11319E0200301784FF42070FFF72CFEBDE831404E
S11319F000F022BADFF87C0301684FF48030DFF88E
S1131A0004231060DFF8702313685B085B00C903CC
S1131A1013605CBFDFF86823106070478440005097
S1131A208C2200002DE9F843814600F0D9FA040025
S1131A30DFF8F88018BF14F1010F03D140F6E2116A
S1131A4000F076F8DFF8BC724FF4C0203860DFF89D
S1131A5084050168012907D10122DFF87C150A6099
S1131A60426912F0030FFBD100F065F8052806D196
S1131A7000F06CFB00F028FB4FF48030F860DFF8D6
S1131A807C2624F04074914506D0DFF8502591451A
S1131A9008BF44F0807401E044F0007400F03EFCA0
S1131AA007464F4503D20121484600F05BFCDFF8AE
S1131AB09856686810F0060FF9D12E682C602868D3
S1131AC004F4F81400F4F810844206D040F62A21F5
S1131AD000F02EF82E60B94602E0484600F05CFDA6
S1131AE000F029F8052814D100F01EFC0446A14595
S1131AF003D240F63B2100F01BF8FFF75DFD0146E1
S1131B00C1F10201204600F043F900F0E3FA00F0CD
S1131B1093F94F4505D301210020BDE8F44300F0BB
S1131B2021BCBDE8F1830000708000508C220000CD
S1131B304046FFF7C2B98020FFF7A2BEC4F10204F9
S1131B40214625E1F8B5044622680FF24075102AB3
S1131B5003D340F68C3100F0CBF86068102803D32F
S1131B6040F68F3100F0C4F8A068102803D340F683
S1131B70923100F0BDF8207B102803D340F6953154
S1131B8000F0B6F8607B102803D340F6983100F0DB
S1131B90AFF8A07B402803D340F69B3100F0A8F8AF
S1131BA0E07B402803D340F69E3100F0A1F8206981
S1131BB0042803D340F6A13100F09AF860690428A0
S1131BC003D340F6A43100F093F8E069022803D36C
S1131BD040F6A63100F08CF8FFF7ADFF032800F0C3
S1131BE081804FF4002047490860DFF8001645F66D
S1131BF00E020A67DFF8F83502201861DFF88C213D
S1131C0001251560886CC503FCD465682068667B73
S1131C102D0545EA0065207BA77B45EA0045E07B6E
S1131C2045EA063545EA871505430D608D68A07EB3
S1131C302669676905F0004540EA8660267E40EA29
S1131C400760677E40EA064040EA072005438D604E
S1131C500D69E069002825F00D050CBF0026082653
S1131C603543E67E45EA860505430D61E06994F84F
S1131C70206004F121050028886920F0330040EA3F
S1131C80461624D12F78DFF86C0546EA071646F08D
S1131C9001068E618E6C06408642FBD102201861DB
S1131CA00864886C4600FCD40868A4684FF00046B9
S1131CB020F4700040EA045008601E60687808B997
S1131CC002231360A87840B90123136005E06A7801
S1131CD0A87846EA420606438E61E87810B1DFF838
S1131CE018250A67F1BDDFF8140590F90000704764
S1131CF02846FFF7E2B8DFF80014088070470000B8
S1131D00062D00206490005010B54FF40011DFF848
S1131D10F0241160DFF8EC44022323606168CA03F5
S1131D20FCD4012820D100F057FCDFF8DC148842F1
S1131D3004D1DFF8D81445F67A1010E0DFF8D01497
S1131D40884204D1DFF8CC1445F61A0007E000EB12
S1131D508001DFF8C424400A490AB2FBF0F0A16212
S1131D60E0620120206201E0002121620020206065
S1131D7010BD00006480005020C0075070900050D7
S1131D8064A000500FF20450FFF797B828E0005009
S1131D900029CCBF01210021F4E00000F8B505467C
S1131DA00C46DFF878040168002601F007010629D3
S1131DB025D8DFE801F022040E181D09130000F0F5
S1131DC0ADFA064605271EE000F0A8FA06460627E7
S1131DD019E000F001FC0646032714E000F0FCFBC8
S1131DE0064604270FE000F0FDFB064602270AE042
S1131DF000F0FCFB0646072705E0012703E040F658
S1131E00DB7100F097F846E0DFF81424136803F060
S1131E100303012B02D0022B01D001E040E061E07A
S1131E2008B10022026009B10020086041F20501F6
S1131E300FF25840FFF741B880B58020FFF76FFCE0
S1131E40DFF8A013884204D24FF48030DFF8D423A3
S1131E50106001BDF8B505460C46DFF8CC0300F070
S1131E6063F814D8DFE801F01102070C00F0B4FBAA
S1131E70064603270FE000F0BDFB064608270AE0EC
S1131E8000F0B4FB0646072705E0012703E041F212
S1131E904A2100F04FF805B12E6004B12760F1BD6E
S1131EA0F8B505460C46DFF8840300F03DF814D875
S1131EB0DFE801F01102070C00F030FA06460527AE
S1131EC00FE000F089FB064603270AE000F08AFBD6
S1131ED00646022705E0012703E041F2912100F0C4
S1131EE029F8D8E7F8B505460C46DFF8440300F0B6
S1131EF01BF814D8DFE801F01102070C00F080FB96
S1131F00064609270FE000F075FB064608270AE09D
S1131F1000F079FB06460B2705E0012703E041F2B8
S1131F20C32100F007F8B6E70168002601F00301B9
S1131F30032970470FF254300027FEF7BEBF00009C
S1131F40F8B505460C46DFF8EC02FFF7EDFF14D8B0
S1131F50DFE801F01102070C00F052FB06460927E6
S1131F600FE000F047FB064608270AE000F04BFBB1
S1131F7006460B2705E0012703E041F2F521FFF7B0
S1131F80D9FF88E7F8B50C4605464FF40031AA4A54
S1131F9011600020FFF71BFBA84941F671334A6921
S1131FA04B630B68120C454302F0010223F4401307
S1131FB04FF440104FF480168A4F002C00D003DDFC
S1131FC0BD422CBF3046002003430B600AB1002001
S1131FD04863F1BD04C0015004E0015080841E0038
S1131FE010B500249649002845D0444A90421FBFAA
S1131FF0944A9042944A904221D0944A904220D0EC
S1132000934A90421FD0934A90421ED0924A9042E3
S11320101DD0924A90421CD0914A90421BD0914AC2
S113202090421AD0904A904219D0904A904218D0C7
S11320308F4A904217D08F4A904216D017E00C680E
S113204019E0CC6817E08C6915E0CC6913E00C6AE0
S113205011E08C6A0FE0CC6A0DE00C6B0BE04C6B6A
S113206009E08C6B07E0CC6B05E00C6C03E041F2FB
S1132070BB31FFF787FE204610BD00007CB5054646
S11320800C46002000907C490A6802F00302012AF1
S113209002D0022A06D00AE000216846FFF700FFBA
S11320A00F260BE000F09EFA0090022606E041F2B3
S11320B0E63100BF75A00026FEF7FFFE0DB10098C3
S11320C0286004B1266073BD4748016841F480610B
S11320D0016070474FF4C07010B5FFF720FB022475
S11320E0664988424FF4207038BF01242146BDE878
S11320F01040FFF7A7BA00009810002040420F00DC
S1132100F8B505460C465E480168002601F0030157
S1132110012904D012D303290BD005D30EE000F01B
S11321206FFA064609270DE000F064FA0646082710
S113213008E000F068FA06460B2703E041F22F415D
S1132140FFF7F8FEA7E600000800015080B500F094
S11321505DFA0021BDE8044014E70000F8B5054627
S11321600C4648480168002601F0070104291AD8E2
S1132170DFE801F01703080D120000F041FA0646EB
S1132180092714E000F036FA064608270FE000F0AD
S11321903AFA06460B270AE000F0C8F8860A0E272A
S11321A005E0012703E041F2A441FFF7C3FE72E614
S11321B03EB504460D460020019033490A68500795
S11321C005D500F0B3F80C210190009103E06946B5
S11321D001A8FFF787FE0CB1019820600DB10098AB
S11321E0286037BD015A62027080005010C0005050
S11321F018D0005003000140F1A7FFFF052D002077
S1132200649000500440025000F04902D8B8050020
S1132210C0175302BBCF0500646666662481005074
S11322202082005070A00050008100502081005096
S113223040810050608100506890005008000350B5
S11322405880E00F80841E0000093D00C0CF6A0062
S1132250405DC6000024F400C0EA210180BA8C016C
S11322600048E80180D54302006CDC02007E56037E
S11322700090D00300B4C4048081005081F0FA02BD
S1132280408200500082005010E000E0656D5F6302
S11322906D752E630000000070B5054600260C46DF
S11322A0400905D140F235310F48FEF706FE07E03C
S11322B0012808BF0D4E03D002280CBF0C4E0D4E52
S11322C005F01F051F2D03D991210B48FEF7F5FDDD
S11322D0002C14BF06F5805606F50056012000FABE
S11322E005F5356070BD00BF8C220000648000508D
S11322F06880005060820050AC150000EFF310803D
S113230072B6704701480068704700BF400000582B
S113231010B962B6BFF36F8F7047000001480068C0
S1132320704700BF0810002000F000B880B5FFF728
S11323301FF905490968054AC1F30331491CB0FB7B
S1132340F1F0106002BD00BF708000500C1000203E
S1132350DFF8C4110A68007922F0300202430A60EF
S11323607047000010B50C4608B9FFF701F9694A37
S1132370117829B1694A904202D22146012001E034
S113238021460220BDE810402DE9F0410546644C89
S1132390206AC0F300100028FAD1206AC0F381102B
S11323A0A8423BD0FFF7E4F8064600BF64A7012D1E
S11323B00BD15A498E4204D340F29B713846FEF742
S11323C07CFD01213046FFF7E3FCFFF797FF8046D1
S11323D04FF0007053490860284600F01BF94FF491
S11323E08062681E8240E26007E0206A810604D5AC
S11323F040F2B3713846FEF760FD2068810102D4D3
S1132400206A8106F1D54046FFF782FF022D05D1EF
S113241030460021BDE8F041FFF7BABCBDE8F081C9
S11324204FF00042F8B53A4B1A603F4F01253D602A
S11324303E4AD36B4AF6CD3595630024002103F060
S113244001033B4D3B4E90B91068C0070BD50127E3
S11324506F6000E0491C506AC70701D4B142F9D348
S1132460B14228BF07240120286016E0491C506AA5
S1132470000701D5B142F9D3B1420DD22020286220
S113248001217960002000E0401CD1698D0601D44F
S1132490B042F9D3B04200D307240BB1264890636D
S11324A000F0B9F82046F2BD38B54FF00041184AA3
S11324B011604AF6CD3101231B4C23601F4B1B4C8A
S11324C0E56BA163427805F00105520042F0010278
S11324D01A602268C17801B10421837822F0740261
S11324E042EA03120A4322600179827942EA012214
S11324F0A2604179C27942EA0122E2600078FFF7E2
S11325008FFF0DB10C48A06300F085F8012032BDA7
S113251064900050072D00206C400050015A620264
S11325206440005064600050045009500840095051
S11325300460095040420F003254FFFF3C400050F9
S1132540656D5F656D752E630000000038B5194830
S113255019490860194802684FF40041184B42F4C5
S1132560700202601960174C4FF0FF3262654FF63B
S1132570DF71A16502228264BFF34F8FBFF36F8FB7
S11325800320FEF776FD4FF4403525600320FEF767
S113259045FD0D48056031BD0C49086070470C4984
S11325A008600C48026802F00702032A08BFFFF71C
S11325B0BDBE70470000000008ED00E088ED00E0BB
S11325C0689000500CA000441080004408100020C3
S11325D0001000207080005001480068704700BF60
S11325E00010002000487047002D3101004870475A
S11325F080D5430201480068704700BF04100020E2
S11326004FF4004070474FF47A70704700487047A9
S113261000B4C4047047704780B500F03DF800F082
S11326203EF800F03EF800F03DF8BDE8014000F04F
S11326303AB810B500F03CF801280CD110480168F4
S11326404FF480200F4A1060042349030E4C23608A
S11326505CBF0E4A106000F033F8FEF7C5FC00F0D2
S113266031F800F03FF800F03FF8FEF7B7FA00F059
S113267051F800F050F800F011F8BDE81040CBE735
S113268064800050649000502020015064A00050E9
S1132690704770477047704700F04AB8704700F0C1
S11326A049B8704770477047704770477047704724
S11326B0024800680002000E704700000080E00F2E
S11326C070470000E0B500BF04A0D0E900236846CD
S11326D0CDE90023FFF7E8FE00200EBD010304014D
S11326E00101090300F0D2B8E0B5094801680522E8
S11326F041F0010101600021684600F083F90021E6
S11327008DF804106846FFF723FE00200EBD00BFBD
S113271074400050704780B5FFF7BAFFFFF7B9FF68
S1132720FFF7B8FFFFF7B7FFBDE8014000F074B949
S1132730FEF778BE80B5DFF82C01FEF7BFFB192049
S1132740FEF77FFC28B11920FEF793FC1920FEF751
S113275065FC1A20FEF775FC28B11A20FEF789FCE7
S11327601A20FEF75BFC002002BDF8B504000D46FC
S113277016460FF20C1001D1932133E001F00F0241
S11327808A421BD1217811B940F2FF1113E00129CB
S113279008BF1F210FD0022908BF7F210BD00329B6
S11327A008BF0F2107D0042918BF052902D0062924
S11327B018BF0729002100F01DF801D4972115E066
S11327C0DFF8A410096821B19B21FEF776FB0220F3
S11327D0F2BDFEF72FFA074632462946204600F09E
S11327E065F90BE0FEF769FB2220F2BDFEF765FBFD
S11327F02120F2BD6278D140C90770473846FEF700
S1132800D3FA0020F2BD10B5044604E04A6812B1C0
S11328108968C0B290479CB121460020CA0703D4FE
S1132820401C49082028F9D30C230121434381404B
S11328308C430E4AD118102824BF0C391038E5E710
S113284010BD0C4948680968094A08400A4905E06E
S1132850084948680968064A084008490840106061
S1132860D1E700007805000010C30350FC1B0020D2
S113287020E4035020C4035055055505AA0AAA0AAA
S1132880736C5F6770696F2E6300000010B58AB0C7
S1132890684645492822FDF7AFFF002407944348C2
S11328A001680A0305D4446804F0FF0414F1010F1D
S11328B003D13F480488FF2C02D814F1010F00D142
S11328C08C248DF81940FFF70EFA041984F30800DC
S11328D08DF818003748FFF762FE6846FFF732F9B3
S11328E03220FFF708FA3448FFF79CF83348FEF724
S11328F0E5FA20B140F2CB113AA0FEF7DEFA00204F
S1132900FFF702FAFFF73EF82D4C2068C008C0001C
S113291040F0030020600020FFF74DF8206820F409
S11329207440206027480168090E11F0010103D0AA
S1132930036823F0807303600022234B1A6019B1EB
S1132940016841F0807101602048016889088900AC
S113295041F0020101604168C908C90041F0020167
S11329604160016E00F039F8016600F035F801624B
S1132970016C00F032F801641548016C00F02DF888
S113298001640168C908C90041F00101016000F057
S113299023F80162FFF72EF80E48016841F00401A4
S11329A0016000200AB010BD880500004C81E00FD2
S11329B00001E00F00F0490280D543027C050000CD
S11329C070800050FCED00E08090005020810050A9
S11329D00082005010E000E0016A8908890041F09B
S11329E001017047736C5F636C6F636B5F6D616E45
S11329F0616765725F696E69745F68616C5F733289
S1132A002E63000010B5044610460A4601462046CF
S1132A10FDF7FEFE204610BD7047000038B50400E7
S1132A200FF2BC1503D140F23A2100F02CF82078C3
S1132A3010B940F2FF1013E0012808BF1F200FD087
S1132A40022808BF7F200BD0032808BF0F2007D01F
S1132A50042818BF052802D0062818BF072800201C
S1132A606178C840C00703D440F23D2100F00BF860
S1132A703021607824780122DFF860314C438240B1
S1132A8019190A6131BD2846FEF717BA70B5044614
S1132A900D461646FFF732FC2168A94335400D4325
S1132AA02560BDE87040FFF733BC00002DE9F0411C
S1132AB0044620780E461746002510B940F2FF1050
S1132AC017E0012808BF1F2013D0022808BF7F2069
S1132AD00FD0032808BF0F200BD0042818BF0528E7
S1132AE006D0062818BF072802D0082818BF0928CE
S1132AF0002061780FF2F808C840C20703D45D21B2
S1132B004046FEF7DAF9DFF8CC20106818B16021EE
S1132B104046FEF7D2F90F2E27D8DFE806F02A0840
S1132B200A0C0E10121416181A1C1E202224012539
S1132B3021E002251FE003251DE004251BE00525F7
S1132B4019E0062517E0072515E0082513E00925F7
S1132B5011E00A250FE00B250DE00C250BE00D25F7
S1132B6009E00E2507E00F2505E0B4214046FEF7F5
S1132B70A4F9300007D03800204602D000F040F815
S1132B8001E0FFF74BFF22783020DFF84C1042437E
S1132B9060788B180F21082805DA800005FA00F206
S1132BA08140181D06E00838800005FA00F28140D3
S1132BB003F10C00FFF76AFF4EB9002F204603D043
S1132BC0BDE8F04100F01CB8BDE8F04126E7BDE8DF
S1132BD0F081000010C3035000C0035000E0035014
S1132BE0736C5F68616C5F6770696F2E68000000CA
S1132BF0736C5F68616C5F6770696F2E63000000BF
S1132C0038B50400194D04D14FF4D8712846FEF7A5
S1132C1054F9207810B940F2FF1013E0012808BFDE
S1132C201F200FD0022808BF7F200BD0032808BF25
S1132C300F2007D0042818BF052802D0062818BF83
S1132C40072800206178C840C00704D440F2B311BB
S1132C502846FEF732F93021607824780122044BAB
S1132C604C43824019190A6131BD00BFE02B0000BA
S1132C7000D0035038B504006BA503D19121284638
S1132C80FEF71BF922786FF0F85010EA026F03D0B8
S1132C9093212846FEF711F9E078102803DB9521EB
S1132CA02846FEF70AF901212020FFF7F5FA012151
S1132CB02120FFF7F1FA534801210160227812061E
S1132CC042606178A27842EA0142FF214261416296
S1132CD000224263C2634FF0004202654FF0FF30AE
S1132CE0494908601520FEF7C4F9E1781520FEF77C
S1132CF0CBF91520BDE83240FEF790B92DE9F0413B
S1132D0007460125BD400C46904600BF46A6082F45
S1132D1002DBDE2100F05AF814B9DF2100F056F886
S1132D2020683A49084202D0E22100F04FF8A07A24
S1132D306FF4403111EA004F02D0E82100F046F868
S1132D40E07A6FF4801111EA005F02D0EA2100F00A
S1132D503DF8207B6FF4001111EA405F02D0EC21B2
S1132D6000F034F82A4EB56320682A492A4A41F80B
S1132D70270030204743617BD0198160E17AA27A31
S1132D80090541EA0241227B41EA425141604FEA8E
S1132D90980189008161FDF74DFF204AD563217AAE
S1132DA001B19562617A01B115622179A37943EA8F
S1132DB0014333606179E37943EA014318491360BD
S1132DC0F5610D60BDE8F041FDF7EEBF3046FEF75A
S1132DD074B810B501248440082803DB40F27B1149
S1132DE000F00CF8FDF726FF0E49CA6AA243CA6236
S1132DF00C60BDE81040FDF7D7BF00000AA0FEF745
S1132E005CB800000400045050200450F0FFC0FFE0
S1132E101820045000400450580004501810045066
S1132E204800045028000450656D5F6C646D612E89
S1132E3063000000016E0029FCD14FF48072C2606F
S1132E407047016E0029FCD14FF48032C260704794
S1132E5070B50D466A68044624A6B2F5805F03D3B4
S1132E604F213046FEF729F8A868202803D35021C3
S1132E703046FEF722F86869B0F5806F03D351211C
S1132E803046FEF71AF8206E0028FCD1002161605C
S1132E90A87B08B14FF480316A7B287B2B7C120617
S1132EA042EA4062E87B6E7C42EA0032A87C42EA55
S1132EB0032242EA06120243114361616969012057
S1132EC0A16160606968AA6842EA0122A260287868
S1132ED050B12046FFF7AEFF2046FFF7B2FF206E49
S1132EE00028FCD10121E16070BD0000656D5F70B8
S1132EF0646D2E630000000070B500F025F810B971
S1132F00DFF8380170BD14B9DFF8340170BDFDF786
S1132F1091FE01460022DFF82C3115015E19307B49
S1132F2040B1521C082AF8D30846FDF73DFFDFF8EC
S1132F30180170BD22600120307300225A510846E6
S1132F40FDF732FF002070BD0446DFF80011087859
S1132F50704780B50FF20C110A68002300928DF8B7
S1132F600030FDF767FEDFF8E420117821B1FDF7AA
S1132F701BFFDFF8DC0002BD01211170FDF714FF17
S1132F8000203049002201EB0013401C08281A736A
S1132F90F9DB08208DF803006846FFF76BFE00207C
S1132FA002BD38B5294D2C7804B912E0082800DB9D
S1132FB011E0244D05EB00152C7B0CB9254832BDDE
S1132FC0049C2B6000236C60AB60FFF797FE00202D
S1132FD032BD1A4832BD1A4832BDF8B51E480468DD
S1132FE04068044000D5FEE70025012634421ED087
S1132FF0144A02EB051719490E603868B8B1B8686D
S11330007A683B68401CB860014628469847002807
S113301004BF787B01280AD1114901EB4510C2682D
S1133020C16922F00202C26021F00201C1616D1C7B
S11330307600082DDAD3F1BD00000000028000F014
S1133040018000F07C1A0020048000F0082D00208C
S1133050038000F0078000F050000450502004501A
S1133060FC1A00201E00000303E050F8043B41F862
S1133070043B13465A1E002BF7D17047074AD21C53
S1133080920807490748EFE7074880F30A88FFF7E3
S11330905DFAFFF7F3FF00F00AF800BF000000003C
S11330A0102D0020684E000000000020FEE7AFF362
S11330B0008000F003F800F013F800004EF6885189
S11330C0CEF20001086840F470000860BFF34F8F2F
S11330D0BFF36F8F4FF00070E1EE100A70470000ED
S11330E000F00DF8002801D000F00CF8AFF30080D8
S11330F00020AFF3008000F019F800F021F801205F
S11331007047000010B5074979441831064C7C44D7
S1133110163404E00A68081D114488470146A14298
S1133120F8D110BDDC1C0000F81C000080B5FFF7CE
S113313080FA00F071F800F0A6F800F072F8FAE7EF
S113314000F0ACB870B50023494CF7EE000A94EDDA
S1133150010AE55E70EEC00A15E030F913602DB285
S113316001EE905A01EE106AB8EEC11A21EE001A6F
S1133170F8EEE11A00EEA11ABDEEC11A11EE105AD2
S113318021F813505B1C9342E7D3258070BDF0B542
S11331900023384CB4F90250E65E94ED010A13E0C2
S11331A030F913702DB27D19AD1B00EE905AF8EE74
S11331B0E00A60EE800AFDEEE00A10EE905A21F873
S11331C0135030F913605B1C9342E9D32680658069
S11331D0F0BD70B5ADF5FA5D0D46044616460DF525
S11331E07A61FFF7AFFF324669462046FFF7CFFF0B
S11331F000200CE00DF57A6131F910103DF9103022
S1133200591801EBD171491025F81010401CB04237
S1133210F0D30DF5FA5D70BD01214FF4FA5000F0C2
S113322049B870B5144C4FF4FA61204600F018F90F
S113323000F08CF90028FBD000F020F8FFF782FFA3
S113324000F01CF8FFF7A3FF00F018F8FFF7C1FF28
S1133250002506A634F9152031460020FDF7ACFC04
S11332606D1CB5F5FA6FF5DB70BD00002564200018
S11332708810002090100020641D00204FF4FA6292
S113328021462046704780B5FFF70EFAFFF70DFA86
S1133290FFF70CFABDE80140FFF709BA07463846C4
S11332A000F0F4F9FBE700000120DFF88413C87094
S11332B07047000070B50C000FF2C8310FF2C8332C
S11332C02DED028B0A88198888B00546ADF80020D8
S11332D0ADF8021000F08880022C00F38580DFF83E
S11332E05403FDF7EBFDDFF85003FDF7E7FD002283
S11332F001216846FFF739FA002204210DF102008A
S1133300FFF733FA9DF80000002818BF012803D006
S1133310022818BF032809D1014630204143DFF8B1
S11333201C03425842F07002425005E04FF4F3711E
S11333300FF22830FDF7C1FDDFF8040301689FEDAB
S1133340871B9FED880B41F4E0010160DFF8F40274
S1133350026842F001020260816841F0021181605A
S1133360416841F4403141F00201416000F097F9B5
S113337051EC100B00F09CF900EE100A00F0CCF9AF
S1133380B0EE408AB0EE000A00F0C6F9DFF8B802E9
S113339088EE000ABCEEC00A10EE106AFDF7F8FED3
S11333A001A9FDF7F7FE2A200199454340F20142A5
S11333B0C6F11E06B1FBF5F56D1E95422ED202A88C
S11333C00FF2A8211822FDF717FA2A210391F6B269
S11333D00021079504968DF80810012C06D1ADF84C
S11333E018108DF816100AE0212035E0022C06D1C1
S11333F001208DF818008DF816008DF8190002A927
S1133400DFF84802FFF724FDFFF7A3FDDFF82052A1
S1133410002105F14000FFF76FFD08B101201BE01A
S1133420A9680E20012C60F39D61A960A96960F36D
S11334309D61A96107D1A96864F39B61A960A96929
S113344064F39B61A9610020287000210120697048
S113345028716C71A970002008B0BDEC028B70BD9E
S113346070B50546724C20790E4608B9112070BD1E
S11334702078002804BF6078002801D0022070BDA5
S1133480A07808B900F00AF8E0780028FCD0002001
S11334906563E663A0630121217070BD1CB5644CB3
S11334A0207908B9112016BDA07808B1022016BDF4
S11334B06749486D0028FBD14FF480720A60486D5B
S11334C00028FCD14FF480320A60486D0028FCD1FA
S11334D001220A60A269A1685E480FF291030143C8
S11334E01043A0610020A160009004F14401206C0D
S11334F02161216204F1080204F14801FFF751FD42
S11335000020019000900023534A0F2104F1580039
S113351000F054F90120A070002016BD10B5444CF1
S1133520A07808B9022010BD206C00F05FF948496A
S1133530486D0028FCD110220A604868C207FCD4F8
S11335400020A070E0702070607010BD38480178D1
S1133550481E8041C00F70470000000000000000BA
S113356000001440000000000000454070B5304ADF
S1133570D36B107801F00101002839D00029906B39
S113358014BF02F1080102F118010C6898421AD222
S113359024F040540C60556B05EB40061D1A8E60F8
S11335A0B5F5006F08D944F4FE4444F0F0040C600F
S11335B000F5006090630CE008686D1E65F30E1062
S11335C00860936305E0234804430C6002F144035C
S11335D08B609068C0F30170032802BF9069C0F348
S11335E00170032822D100201070FFF797FF1DE01F
S11335F05078D8B1C1F1010102EB810002EB011155
S11336008C68C4F30174032C0BD18A685B1E63F3CA
S11336100E128A608A6822F040528A60806A0861C9
S113362004E0126B12B1806A19469047012070BD04
S113363010100020780500008005000000C0035031
S113364060C0035020C5035060050000008009508D
S11336500C800950F07F0030A9320000736C5F6861
S1133660616C5F6770696F2E6800000001000000E4
S1133670200000000500000001000100010103001A
S113368000000000020200000203000020210903E0
S113369026311820ABBEF9E741EC100B01BD80B513
S11336A053EC112B51EC100B00F0C0F8F4E70000C0
S11336B001F000428B1AA3F16051B1F5801F0ADBBF
S11336C0B1F17F6F1FD242EAC102C10071F1004122
S11336D042EB507070470B15C3F10903212B10D234
S11336E0890241EA905180020128494141F0004198
S11336F021FA03F0C3F12003994071F100415041D4
S11337007047100070476FF0000013EB103F5CBF70
S1133710000E42EAC050704710EE100AB5EE400A9F
S11337204FF0807111EB400F80F04284F1EE10FAFB
S11337302149F1EC070A40F34584C20D01F10C0163
S113374091EC054A2DD07E3AA0EBC25000EE100A4F
S1133750B4EE600AF1EE10FA44BF521E20EE210AC4
S113376000EE902AF8EEE00A70EE416A30EE017A3B
S113377086EE877A67EE077A02EEA73A43EE273A97
S1133780B0EE660A03EEE70A20EE077A20EE850A19
S113379005EEC70A04EEA60A04EE260A06EE200A7F
S11337A0704720EE020A10EE100AC20D7E3AA0EB1A
S11337B0C250173ACAE70000B00500007FB50446BE
S11337C0084615461E4602A900F006FC58B99DF8A5
S11337D02010BDF8240033460091029901902A4636
S11337E0204600F013FC04B070BD000080B50A4A06
S11337F0117809B9094802BD082801D3084802BD57
S1133800084A02EB0013197B09B9074802BDFFF708
S1133810E0FA002002BD00BF082D0020028000F065
S1133820018000F07C1A0020078000F02DE9F04DA3
S11338302DED0A8B41EC190B43EC182B51EC180BB2
S113384020F0000431F0004508BF002C84B000F0E3
S1133850088353EC192B0020DFF88C1600F0FEFBD4
S113386000F0FF82DFF8141600F0F8FB08D151ECE9
S1133870180B48004015401C02D1090300F0F182E6
S113388051EC190B48004015401C00F00E8251EC1D
S1133890190B31F0004108BF002800F0068251ECFA
S11338A0180B48004015401C00F0FF8151EC180B28
S11338B04B0043EAD0734200002B08BF002A04D116
S11338C0B0EE48AAF0EE68AA19E040F23344A4EB43
S11338D05352352A04DB00F0000001F000410CE0F3
S11338E0202A03DD203AD140914000E001D100209C
S11338F003E0002AC4BFD040904041EC1A0B51ECC5
S1133900190BC80F0BD053EC182B51EC1A0B00F009
S1133910A5FB04D0AFF300809FED3F9BA3E253ECE3
S1133920192B23F00041B1F5801F22F000000DD2C5
S11339300022002908BF0028009216D06A4651ECE4
S1133940190B00F09BFB41EC190B0EE0DFF8AC45C2
S1133950DFF82C7504EB115000903B40DFF8240590
S1133960924643EA000B4BEC19AB51EC190BC80F10
S113397036D021F0004053EC192B034643EC192BAD
S113398051EC1A0B4B0043EAD0734200002B08BFE2
S1133990002A04D1B0EE4A0AF0EE6A0A19E040F2B5
S11339A03444A4EB5352352A04DB00F0000001F048
S11339B000410CE0202A03DD203AD140914000E090
S11339C001D1002003E0002AC4BFD040904041EC64
S11339D0100B53EC1A2B51EC100B00F03FFB01D1F0
S11339E0002600E00126009801281DD151EC190B96
S11339F0DFF89424DFF8943400F078FB14D253EC0D
S1133A00192B00204FF0804100F088FB00279FED28
S1133A1004BB41EC190B27E0FFFFFFFFFFFFFF7F13
S1133A20000000000000F03F53EC192B0020DFF8E9
S1133A30601400F073FB9FED78AB53EC1A2B00F08D
S1133A403FFC00F0FBFCA0F12004204600F014FD34
S1133A500022DFF8403400F061FB53EC1A2B00F035
S1133A602FFC41EC1B0B670151EC190B53EC1B2B86
S1133A7000F014FD41EC1A0B53EC192B51EC1B0B09
S1133A8000F01EFC02460B4651EC1A0B00F078FDC8
S1133A9041EC190B53EC192B00F040FB41EC1C0BCF
S1133AA053EC1C2BDFF8F003DFF8F01300F036FBC7
S1133AB0DFF8EC23DFF8EC3300F002FC53EC1C2BB2
S1133AC000F02CFBDFF8E023DFF8E03300F0F8FB34
S1133AD053EC1C2B00F022FBDFF8D423DFF8D433A3
S1133AE000F0EEFB53EC1C2B00F018FBDFF8C823AE
S1133AF0DFF8C83300F0E4FB53EC1C2B00F00EFBA2
S1133B00DFF8BC23DFF8BC3300F0DAFB53EC1C2BEA
S1133B1000F004FBDFF8B023DFF8B03300F0D0FB93
S1133B2053EC1C2B00F0FAFA53EC1A2B00F0B6FC01
S1133B3004460D460020DFF8B01353EC1B2B00F0B5
S1133B40ADFC00224FF0804300F0E8FA22462B46F9
S1133B5000F0B6FB53EC192B00F0E0FA41EC100B2B
S1133B60DFF86C03784400F55A70074453EC1A2BC1
S1133B7051EC100B00F0A4FB41EC190B009800F081
S1133B807BFCD7E9002300F09BFB41EC1A0B53ECC0
S1133B90192BDFF84003DFF8401300F0BFFA53ECB1
S1133BA01A2B00F08DFB53EC182B00F0B7FA00220F
S1133BB0DFF8283300F09AFA41EC1B0B69D3012299
S1133BC0C74B00F001FE61D9C80F53EC1B2B1ABF81
S1133BD00020C449AB4900F073FB00F02FFC002225
S1133BE0C14BCDE901238046CDF8008053EC192B5D
S1133BF051EC180B00F092FA04460D46D7E9020185
S1133C00D7E9042300F05CFB53EC182B00F086FA90
S1133C109FEDB6BB04E000BF000000000000E03FE1
S1133C2053EC1B2B00F07AFA22462B4600F048FB9B
S1133C3007468B4653EC1A2B51EC180B00F06EFA26
S1133C4004460D46404600F017FC02460B4620464B
S1133C50294600F023FC53EC1B2B00F05FFA3A4694
S1133C605B4600F02DFBDDE9012300F0C5FD41ECCE
S1133C70190B31F0004108BF00280AD051EC190B90
S1133C8048004015401C06D1090304D19FEDA09BB8
S1133C9001E09FED9B9B002E00F0E58051EC190B99
S1133CA081F0004141EC190BDDE051EC190B4800A7
S1133CB04015401C02D1090340F0D58051EC180B8B
S1133CC048004015401C06D1090304D0B0EE489AC0
S1133CD0F0EE689AC7E051EC180B48000124401537
S1133CE0401C61D051EC180B4B0043EAD0734200E6
S1133CF0002B08BF002A04D1B0EE48AAF0EE68AA4F
S1133D0019E040F23345A5EB5352352A04DB00F0A9
S1133D10000001F000410CE0202A03DD203AD140EC
S1133D20914000E001D1002003E0002AC4BFD0404C
S1133D30904041EC1A0B53EC182B51EC1A0B00F089
S1133D408DF918BF00244B0043EAD0734200002BC6
S1133D5008BF002A04D1B0EE4A0AF0EE6A0A19E05C
S1133D6040F23445A5EB5352352A04DB00F0000041
S1133D7001F000410CE0202A03DD203AD1409140BB
S1133D8000E001D1002003E0002AC4BFD0409040ED
S1133D9041EC100B44B153EC1A2B51EC100B00F016
S1133DA05DF90CBF0024012451EC190B48004015A7
S1133DB0401C0AD1090308D151EC190BC80F21D1B9
S1133DC053EC182BDA0F49D040E051EC180B4800A3
S1133DD04015401C1ED109031CD153EC192B23F0B0
S1133DE00041B1F5801F22F0000021D200220029F9
S1133DF008BF002800921FD06A4651EC190B00F04E
S1133E003DF919E051EC180BC80F01D1002C21E049
S1133E10E4B10AE0002C1ABF51EC190BC80F0020C2
S1133E2053EC182BDA0F14D180B19FED329B1AE0BA
S1133E30324C04EB1150009051EC180BC80F009851
S1133E4002D100280ADC01E0002807DD9FED2C9B4D
S1133E5009E0002818BF9FED2C9B04D19FED2C9BFB
S1133E6001E09FED049B04B051EC190BBDEC0A8BEF
S1133E70BDE8F08D000000000000F03F0000F0BF3E
S1133E80FFFF0F800000E03FCD3B7F669EA0E63F32
S1133E90000050400000903FF7DE29BFD8F8C23F31
S1133EA0F4B3FECC1A99C33F62CB68D96F46C73FBF
S1133EB0C6C912DAC471CC3F4AE98A942449D23F74
S1133EC0F75F97999999D93FBC5555555555E53F95
S1133ED070C2FFFFFE822B654715F73F0000E0C06C
S1133EE00000E0400000E0BF0000F03FEF39FAFEC0
S1133EF0422EE63F000000000000008002FCFFFFAD
S1133F000000000000000000000000000000F0FFBE
S1133F10000000000000F07F10EE100AB5EE400A29
S1133F204FF0807C1CEB400F42D2F1EE10FADFF828
S1133F30A4C0DCEC090A45DD5FEAD05C2BD0ACF10F
S1133F407E0CA0EBCC5000EE100AB4EE600AF1EE49
S1133F5010FA44BFACF1010C20EE210A00EE90CA25
S1133F60F8EEE00A70EE415A30EE016A85EE866A98
S1133F7066EE066A02EEA63A43EE263AB0EE650A0B
S1133F8003EEE60A20EE066A04EEE06A35EEC60A9F
S1133F9004EE200A704720EE020A10EE100A4FEADF
S1133FA0D05CACF17E0CA0EBCC50ACF1170CCAE7A2
S1133FB007D8004244BF6FF0004000EE100AAFF390
S1133FC000807047F6DB6FF00000C00500EE100AB9
S1133FD070470000B005000030B502460C460A48A0
S1133FE0416991420DD3856840F2E7300021E5FB39
S1133FF002014FF47A720023FCF7DCFE20600020FB
S113400030BD212030BD00BF641A0020F8B504463D
S113401084B000200D4616461F468DF80C000CB9DE
S1134020222018E0A083E08303A9204600F0D8FDF5
S11340309DF80C00012808BF03200CD0BDF82C000B
S11340409DF82810029000970191334600222946DA
S1134050204600F0E3FD05B0F0BD000090420CD115
S113406041EA030C50EA4C0C07D0994205D14FF4B5
S1134070001C1CEB410F38BF8942704710B5144631
S113408000F002F8226010BDC1F30A5343B14A00A4
S113409012F5001F28D2A3F2FE32A1EB02517047A1
S11340A050EA410C20D001F0004C31EA0C01B1FA85
S11340B081F204BFB0FA80F3D2180B3AB2F12003B4
S11340C02CBF00FA03F1914041EA0C013EBFC2F15A
S11340D0200C20FA0CF319439040524240F2FD3375
S11340E0D21A01EB03517047002270474FF4001CB1
S11340F01CEB410F94BF1CEB430F09E041EA030C96
S113410050EA4C0C52EA0C0C03D2994208BF90427C
S1134110704714BF8B42824270470000B0B581EAF9
S1134120030C0CF0004C40F2FF7515EA11541DBF4E
S113413015EA1357AC42AF4239E0E41923EA455378
S113414043F48013C90241F0004141EA505EC702C2
S11341501100A7FB020200284FF00000EEFB012033
S11341604FF00001E3FB072118BF42F001024018A1
S113417000214941E3FB0E01A4F580640F0302D240
S113418052004041494154F101046CDD470872F189
S1134190004250F1000051EB0451A1F580115CBFC5
S11341A041EA0C01B0BD4CEA05510020B0BD05EA5E
S11341B01357AC4214BFAF4241E050EA410E1CBF5A
S11341C052EA430E02E061460020B0BD24423C4462
S11341D01BD15FEA070EF6D0090302BF0146002097
S11341E0AEF1140EB1FA81F7AEEB070401FA07FE43
S11341F00C37C7F1200100FA07F7C8404EEA000E59
S113420023EA455343F48013A2E733F00043B3FA9F
S113421083F704BFB2FA82FE77440B3FE41BB7F185
S1134220200E2FBF02FA0EF3BB40C7F1200E22FA74
S11342300EFE38BF43EA0E03BA40641C82E750EA1C
S1134240410E14BF52EA430E6FF000014FF4001701
S113425017EB430F8ABF194617EB410FB5E74CEA3A
S113426005510020B0BDD4F10104B4F120070FDAE8
S1134270C4F12007520828BF42F0010210FA07F5E2
S113428001FA07F7E1BF2A43E0403843E1400FE079
S1134290352C98DCC7F1200452EA400220FA07F2D8
S11342A018BF42F0010231FA07F0A1400A4300218D
S11342B072F1004250F1000051EB0C01B0BD00005E
S11342C070B44FF0004591EA030F40F1EF806B406A
S11342D0841A71EB030604D26E40001BB14112191B
S11342E073414FF4001C1CEB410F34BF7CEB4306BD
S11342F083E00C0DA4EB1356362E00F37C80012EC4
S113430045EAC32341DC43EA525312BFD20292026C
S11343105B08240545EAC12141EA5051D2EBC02093
S1134320994125D407D1B0FA80F610FA06F162D08B
S11343300020203608E0B1FA81F6B140C6F120022F
S113434020FA02F21143B0404FEAF474B4EB46543D
S113435034F001064FEA74040AD8D6F50016760D37
S113436004F00044F04061FA06F25040F140484045
S1134370C00A40EA415021F0004128BF5FEA5005DD
S113438050F1000044EBD12135E0DB0A45EAC121BC
S1134390C90AB6F120050EDD42EA0242120CC5F14B
S11343A0200603FA06F6EB4042EA06056D42984100
S11343B061F100010DE062FA06F5F240554063FA3E
S11343C006FC82EA0C02F3405A406D42904161EBD4
S11343D0030111F4801F05D1641E620502D06D0033
S11343E04041494121F48011430875F1004350F1E3
S11343F0000041EB045170BC70471CEB410F15D217
S113440023F0004352EA43060BD04FEA4C0CBCEBBA
S1134410410F04D80C0D661E342EB7DDEBE7801A6D
S1134420994150EA410608BF0021E4E708BF1CEBAC
S1134430430F28BF6FF00001DDE70000C1F30A530A
S113444040F2FE329B1A14DDD3F120034FEAE172ED
S113445008DDC90241EA505141F00040D8408018BB
S11344605040704703F2E13010B1D24382F0004073
S11344707047002070470000C11768B14840401AD7
S1134480B0FA80F29040D21CC907C2F5846241EAB6
S1134490025202EBD02140057047000070B44FF087
S11344A0004591EA030F7FF513AF6B40841A71EB5B
S11344B0030603D2001BB141121973414FF4001CCF
S11344C01CEB410F34BF7CEB430442E00C0DA4EB26
S11344D01356352E4FDC45EAC323DB0A45EAC121D6
S11344E0C912B6F120050DDD63FA05F6EB4086EA44
S11344F00305124218BF45F00105C01851F100012F
S11345000CD213E062FA06F5F2405540F3415A40EA
S1134510B340F3405A408018594107D349085FEA31
S113452030005FEA350528BF45F0010501F580112B
S1134530420875F1004250F1000041EB04514E0075
S113454016F5001F70BC38BF70470020090D09051F
S113455070471CEB410F10D252EA43060BD0BCEB60
S1134560410F05D80C0DAB43661E342EB6DD02E0B8
S1134570AB438018594170BC704770BC7047000051
S1134580F0B540F2FF7581EA030C0CF0004C15EA1B
S113459011541DBF15EA1357AC42AF42E5E0BC41CC
S11345A0C1F31301C3F31303801A994143F4801335
S11345B004D2641E4000494180185941C90241EAAD
S11345C05051B1FBF3F603FB1611A2FB0675D7EBB2
S11345D0C020A94102D2761E80185941C90241EA7D
S11345E05051B1FBF3FE03FB1E11A2FB0E75D7EB7A
S11345F0C020A94103D2AEF1010E801859418902AD
S113460041EA9051760546EA8E2EB1FBF3F603FBA0
S11346101611A2FB0675D7EB8020A94102D2761EA3
S113462080185941C90241EA50514EEA060EB1FBC5
S1134630F3F603FB1611A2FB0675D7EBC020A941C4
S113464002D2761E80185941C90241EA5051B1FB89
S1134650F3F703FB1711A2FB0735D3EBC020A941E5
S113466067F100070CBF004247F0010766F3D52746
S11346704FEA1E31B80814F5806412DDBD0775F1E8
S1134680004250EB0E5051EB045111F5801F5CBFFA
S113469041EA0C01F0BD4CF07F6141F0E0410020A3
S11346A0F0BDBD076D0840EA0E5041F48011D4F10D
S11346B00104B4F120060ADAC4F120060200E04045
S11346C001FA06F3E1401843B24015430EE0342CDE
S11346D013DCC6F1200445EA40056D0820FA06F211
S11346E0154321FA06F0A1400D43002175F1004263
S11346F050F1000051EB0C01F0BD00205FEA0C0109
S1134700F0BDCFB992185B41B3FA83F704BFB2FA94
S113471082F6BF190B3FB7F120062FBF02FA06F34A
S1134720BB40C7F1200622FA06F638BF3343BA402D
S11347301CB1E419641E33E77F4231F00041B1FA41
S113474081F404BFB0FA80F6A4190B3CB4F120063E
S11347502FBF00FA06F1A140C4F1200620FA06F6A4
S113476038BF3143A0403C1B1AE7AC421ABF05EAEC
S11347701357AF4212E050EA41061CBF52EA430607
S1134780BFE750EA4107304661461CBF41EA055184
S1134790F0BD52EA430C08BFC143F0BD00204FF402
S11347A0001616EB410F98BF16EB430F08BF16EB2C
S11347B0410F24BFC14305E016EB430F0CBF614614
S11347C04CEA0551F0BD00004FF4001C1CEB410FF6
S11347D094BF1CEB430F09E041EA030C50EA4C0C74
S11347E052EA0C0C03D28B4208BF8242704714BFBA
S11347F09942904270470000F8B52DED0A8B41ECC8
S11348001A0B48004015109D401C43EC182B23D074
S113481051EC1A0B31F0004108BF00281CD051ECB8
S1134820180B48004015401C16D051EC180B31F001
S1134830004108BF00280FD051EC1A0B0022DFF80A
S11348404833FFF753FC80F0A38055EC184B9FEDE1
S1134850800B05F00042ACE051EC1A0B4800401507
S1134860401C02D1090340F0898151EC180B480027
S11348704015401C01D1090353D151EC180B31F000
S1134880004308BF002A08D151EC1A0B4800401518
S1134890401C46D1090344D10DE048004015401C9A
S11348A012D1090310D151EC1A0B48004015401CD9
S11348B037D1090335D1AFF30080BDEC0A8B4FF03B
S11348C0FF306FF00041F4BD51EC1A0B31F00041A0
S11348D008BF002828D151EC180B4800400D05EB07
S11348E0000234D151EC180B31F0004108BF00280C
S11348F006D02A4651EC180B00F0C8F941EC180B0D
S113490051EC180B20F0000231F0004308BF002ADC
S113491005D048004015401C03D1090301D1AFF371
S1134920008051EC180B2BE151EC1A0B4800401598
S1134930401C26D1090324D153EC1A2B51EC180B3B
S1134940BDEC0A8B01B0BDE8F040FFF7E7BB002ADD
S1134950C8DD40F2FF70824209DB9FED9F0B53ECF0
S1134960102B01F000410B4343EC182BC8E76FF305
S11349701E5141EA025155EC184B0D4645EC184BBB
S1134980BEE755EC184B9FED320B05F0004210E0EA
S113499001227E4BFFF718FF11D89FED8F0B51ECCE
S11349A0100B55EC184BAFF3008005F0004040EAC3
S11349B0010251EC100BBDEC0A8B1146F4BD53EC13
S11349C01A2B73487349FFF7A9FB41EC100B53EC06
S11349D0102B9FED719B03F0004251EC190B0C4618
S11349E0144353EC192B51EC100B2346FFF768FCCE
S11349F0FFF724FD0446FFF73FFD41EC1B0B53EC8E
S1134A001B2B4FF078406649FFF788FB02460B46A4
S1134A1051EC1A0BFFF742FD06460F4653EC1B2BD5
S1134A2060486149FFF77AFB02460B463046394637
S1134A30FFF734FD41EC1A0B21F0004100225B4BDF
S1134A40FFF754FB08D2B0EE48AAF0EE68AA55E08E
S1134A50000000000000000053EC1A2B51EC1A0B6C
S1134A60FFF75CFB41EC1B0B53EC1B2B50485149EB
S1134A70FFF754FB504A514BFFF722FC53EC1B2B1E
S1134A80FFF74CFB41EC1C0B53EC1B2B4C484D49E2
S1134A90FFF744FB4C4A4D4BFFF712FC53EC1B2B26
S1134AA0FFF73CFB53EC192BFFF70AFC53EC1A2BD2
S1134AB0FFF734FB41EC190B53EC1C2BFFF700FC04
S1134AC09FED43AB53EC1A2BFFF7FAFB06460F4658
S1134AD051EC1C0B53EC192BFFF7E0FC53EC1A2B95
S1134AE0FFF7EEFB02460B4630463946FFF748FD1A
S1134AF053EC182BFFF712FB41EC1A0B51EC1A0B79
S1134B002A194800400D02EB000319D0002B17DDD1
S1134B1040F2FF70834209DB9FED2F0B53EC102B07
S1134B2001F000410B4343EC1A2B16E06FF31E51C6
S1134B3041EA035155EC1A4B0D4645EC1A4B0CE077
S1134B4051EC1A0B31F0004108BF002805D051EC9C
S1134B501A0B00F09BF841EC1A0B51EC1A0B20F0E5
S1134B60000231F0004308BF002A05D04800401578
S1134B70401C03D1090301D1AFF3008051EC1A0B9F
S1134B80BDEC0A8BF4BD000000C89CC000C89C406A
S1134B90FE822B654715F73F000000000000E03F50
S1134BA0422EE63FF2E4D5BCE7E84B3E0000903CE1
S1134BB0112E5781A03F503F5843128C8F71BC3F38
S1134BC04BE8A541B752013F0BBDF3DAE8708C3FC7
S1134BD0000000000000F03F000000000000F07F33
S1134BE038B505000C4618BF002C01D1222032BD77
S1134BF000202070FCF71EF80749CA6800E092689C
S1134C002AB1217819B9AA42F9D101222270FCF7FC
S1134C10CBF8002032BD00BF641A002070B50D46E9
S1134C20059906461446049A0698317132600021AB
S1134C30B1603461F360F0801CB9FCF7FBFB281809
S1134C4002E0FCF7F7FB2018B06145B9F2680020D8
S1134C50706112B131683046904794B12546FDF732
S1134C604DFB0446FCF7B4FA29463046FCF75AFCDF
S1134C700548C168B14208BFFCF7C4FA2046FDF7F5
S1134C8047FB002070BD00BF641A0020124254D4B8
S1134C9040F2FF7C1CEA11530FD0634531D09B18BE
S1134CA063453CBF01EB0251704701F0004141EA0A
S1134CB00C510020AFF30080704750EA410320D02C
S1134CC001F0004C91EA0C011CD0B1FA81F30B3BCA
S1134CD09A420DD9D21A994051EA0C01C3F1200C21
S1134CE020FA0CFC61449840531C40F2FF7CD7E747
S1134CF0914041EA0C01C2F1200C20FA0CF3194353
S1134D0090407047B0FA80F31533202BE0D3202A6B
S1134D10EED3203A203B9A4209D9D21A00FA03F181
S1134D2041EA0C010020531C40F2FF7CB8E700FA72
S1134D3002F141EA0C0100207047524240F2FF7C2C
S1134D401CEA11530DD06345DBD0B2EB030C3CBF1E
S1134D50A1EB025170470CF1010221EA035141F425
S1134D60801150EA410CCCD001F0004C352A27DCEC
S1134D7030B481EA0C01B2F1200309DAC2F1200354
S1134D80044601FA03F5D0402843D1409C400CE08E
S1134D90C3F12002450020FA03F418BF44F00104D3
S1134DA021FA03F091400C43002174F1004550F1C5
S1134DB0000051EB0C01244230BC7FF47BAF704700
S1134DC06146002076E730B501688468421841687E
S1134DD002EB5103C90703D54C4401E0491C05D13A
S1134DE09A420AD012F9011B12F8015B002904F857
S1134DF0015BF3D4491EF7D5F2E70C3030BD000057
S1134E00BFB9FFFF701C00009C10002000000000D0
S1134E10B7FFFFFF0C00000090000000001000200E
S1134E200F00F0490200800000C0EA2101C0EA211D
S1134E3001F8000CE07F100B208009505410002072
S1134E4013FD000CE07F100B20800950541000204B
S1134E50F3FDFFDE00000FCF0003CDCCCC3DFC0002
S10B4E6006CDCCCC3DFFFF019F
S90330AF1D
